:020000040800F2
:1000000000100020ED2400083D2500083D250008D3
:1000100000000000000000000000000000000000E0
:100020000000000000000000000000003D25000866
:1000300000000000000000003D250008D71C00085B
:100040003D2500083D2500083D2500083D25000808
:100050003D2500086D1D00087D1D00088D1D000850
:10006000000000003D2500083D25000800000000BC
:100070003D250008291A0008411A00080000000068
:10008000491A00083D25000800000000611A000818
:1000900000000000791A0008911A00083D250008A8
:1000A000000000003D2500083D250008E52300086C
:1000B000FD230008000000003D25000800000000AE
:1000C00002B4714649084900095C49008E4402BCEB
:1000D0007047C046002243088B4274D303098B4209
:1000E0005FD3030A8B4244D3030B8B4228D3030C08
:1000F0008B420DD3FF22090212BA030C8B4202D3AA
:100100001212090265D0030B8B4219D300E0090AD1
:10011000C30B8B4201D3CB03C01A5241830B8B42DA
:1001200001D38B03C01A5241430B8B4201D34B03C3
:10013000C01A5241030B8B4201D30B03C01A524128
:10014000C30A8B4201D3CB02C01A5241830A8B42AD
:1001500001D38B02C01A5241430A8B4201D34B0296
:10016000C01A5241030A8B4201D30B02C01A5241FA
:10017000CDD2C3098B4201D3CB01C01A52418309AE
:100180008B4201D38B01C01A524143098B4201D3E8
:100190004B01C01A524103098B4201D30B01C01A13
:1001A0005241C3088B4201D3CB00C01A524183088D
:1001B0008B4201D38B00C01A524143088B4201D3BA
:1001C0004B00C01A5241411A00D20146524110461A
:1001D0007047FFE701B5002000F0F0F802BDC0460F
:1001E0000029F7D076E7704703460B437FD40022FF
:1001F00043088B4274D303098B425FD3030A8B42BB
:1002000044D3030B8B4228D3030C8B420DD3FF2224
:10021000090212BA030C8B4202D31212090265D0F2
:10022000030B8B4219D300E0090AC30B8B4201D3A5
:10023000CB03C01A5241830B8B4201D38B03C01AEC
:100240005241430B8B4201D34B03C01A5241030B63
:100250008B4201D30B03C01A5241C30A8B4201D314
:10026000CB02C01A5241830A8B4201D38B02C01ABF
:100270005241430A8B4201D34B02C01A5241030A36
:100280008B4201D30B02C01A5241CDD2C3098B421B
:1002900001D3CB01C01A524183098B4201D38B0198
:1002A000C01A524143098B4201D34B01C01A52413B
:1002B00003098B4201D30B01C01A5241C3088B4280
:1002C00001D3CB00C01A524183088B4201D38B006B
:1002D000C01A524143088B4201D34B00C01A52410D
:1002E000411A00D201465241104670475DE0CA0FE4
:1002F00000D04942031000D34042534000229C46A4
:1003000003098B422DD3030A8B4212D3FC228901AD
:1003100012BA030A8B420CD3890192118B4208D383
:10032000890192118B4204D389013AD0921100E0E5
:100330008909C3098B4201D3CB01C01A52418309F9
:100340008B4201D38B01C01A524143098B4201D326
:100350004B01C01A524103098B4201D30B01C01A51
:100360005241C3088B4201D3CB00C01A52418308CB
:100370008B4201D38B00C01A5241D9D243088B4221
:1003800001D34B00C01A5241411A00D201466346C4
:1003900052415B10104601D34042002B00D5494228
:1003A000704763465B1000D3404201B5002000F067
:1003B00005F802BD0029F8D016E770477047C0461F
:1003C00010B5064C2378002B07D1054B002B02D02B
:1003D000044800E000BF0123237010BD700000201E
:1003E00000000000B02E0008044B10B5002B03D015
:1003F0000349044800E000BF10BDC04600000000F3
:1004000074000020B02E000810B50121052002F074
:10041000A5F80421044A054800F082F901211020C2
:1004200002F0F8F810BDC046DC0500008C0000208A
:1004300070B5FA25124CAD000021200000F0DCF868
:10044000280002F027F95A21200000F0D5F82800F2
:1004500002F020F9B421200000F0CEF8280002F0CC
:1004600019F95A21200000F0C7F8280002F012F90B
:100470000021200000F0C0F8280002F00BF970BD48
:100480008C00002010B5024800F084F810BDC04672
:100490008C00002070B52E4C2E4D23782A785BB24C
:1004A0002D4E002B17DA0023336023782A7801338E
:1004B0005BB22370237829485BB2934203DA237836
:1004C0005BB20B2B1BDD3368254A0433934235D9CD
:1004D00001F095F938E023785BB29342E5DA2378AE
:1004E000204A5BB2DB00D3185B78012BDDD1237887
:1004F00000215BB2DB00985C02F08CF8D5E7237832
:10050000184D5BB2DB00EB185968002201F064FA69
:1005100023785BB2DB00EB185A6833689B183360B2
:1005200023785BB2DB00EB185978012905D12378D9
:100530005BB2DB00585D02F06DF870BD33680A49AC
:100540000022C91A01F048FAFF232370F5E7C046DC
:10055000000000209400002090000020980000205F
:100560001F4E000040010020204E0000012A02D151
:10057000016000207047022A05D0032AF9D0002A22
:10058000F7D10260F5E70B680360F2E710B5036886
:10059000984710BD074A13780B2B08D8591C1170C7
:1005A000054A0370DB00D218044B53607047FF23E9
:1005B0000370FBE79400002040010020DC050000F0
:1005C00010B504780B2C13D80122882382569B1A6D
:1005D0009B008B4208DC0222962382569B009B1ACA
:1005E0009B008B4200DD0B00024AE40012195360AD
:1005F00010BDC04640010020882313B59B000400B5
:10060000994216DAB420B42902DCC843C017084066
:1006100001228823A25602219B1A9622615692003B
:10062000521A9200002100929B00B42201F052FF66
:1006300001002000FFF7C4FF13BD0000F0B587B034
:100640000193037804000D0016000B2B54D80121F0
:10065000280001F083FF2378294FDB000C9920004C
:10066000DD55FFF7C9FF882103228900891BCB17BD
:1006700013405B1896219B106370019B0901C91AF6
:10068000CB1713405B189B10A37000231D4AD15C4D
:1006900001292CD00833602BF9D11B4D280001F023
:1006A0006FF91A49FFF716FD0100280001F0CEF896
:1006B00000222800164901F08FF900230393154BFF
:1006C00028000293144B02A90593144B049301F0E4
:1006D00041FA049B002B03D002A90322080098478B
:1006E0002800002101F07FF8280001F05BF80122CA
:1006F0002378DB00FB185A70207807B0F0BDC046A5
:1007000040010020410100209800002040420F00DD
:10071000204E0000950400088D0500086D050008B6
:1007200013B59623882400921B01A200FFF786FFD1
:1007300016BD000010B50248024901F0BFF910BD16
:10074000980000200020004010B5024801F0B0F8E9
:1007500010BDC0469800002070470000104B70B5D7
:1007600019680500002901D1012070BDFA20800020
:10077000FFF7B0FC0B4C01002068FFF7ABFC00F06A
:1007800079F8041EF0D1032DEED8020001202900D3
:10079000404200F029F8044B20001D60E5E7C04608
:1007A00004000020180000200800002010B50020E0
:1007B000FFF7D4FF041E03D1FFF7CEFF200010BDCA
:1007C0000124FBE7034A0449136809685B181360B6
:1007D0007047C046A001002004000020014B1868AB
:1007E0007047C046A001002010B5FF2403220B0073
:1007F00021000240D20091409B012340C943934015
:1008000000280ADBC0240B4A800880008018A4005E
:1008100002590A401343035110BD0F2210400838FB
:10082000054A800880008018C26911401943C161DF
:10083000F2E7C04600E100E000ED00E0002805DB43
:100840001F2318401E3B8340014A13607047C04677
:1008500000E100E0002809DB1F2318401E3B834015
:10086000034AD367BFF34F8FBFF36F8F7047C04604
:1008700004E100E08022431E5204012093420DD285
:10088000C021074A07485360036A09061B021B0A76
:100890000B43036200200723906013607047C0463B
:1008A00010E000E000ED00E0002807DB1F23C0227D
:1008B00018401E3B8340024952008B507047C0468F
:1008C00000E100E0704710B5FFF7FCFF10BD00002D
:1008D00010B5841CE37F022B03D004238363012023
:1008E00010BD0E21026813688B4313600123116849
:1008F000994311600B498A4203D00B4B9A420DD1A8
:1009000010230A4A536001230022E377C318DA77E1
:10091000436B934200D098470020E1E780235B00BF
:10092000EFE7C046080002401C0002400000024001
:10093000044B10B5DA68104202D0D86001F000FA1A
:1009400010BDC0460018024030B587B001A90A00AA
:10095000224B31CB31C211CB11C2214B38229C68C2
:100960002000104014420ED107241A685B68D20A96
:100970005B0B22402340042B00D81800800008584D
:10098000D04007B030BD9868104008281FD0986844
:10099000104010280FD1DC680F38220002400442BA
:1009A00017D15B681B045B0F042B00D81A00920060
:1009B00088584000E5E79968114020290BD09B68D2
:1009C00000201340182BDCD1FA20C001D9E70548DC
:1009D000D7E70548D5E780200002D2E7C82E0008F7
:1009E0000010024000127A000024F400F0B5040068
:1009F00085B0002802D1012005B0F0BD01220368B6
:100A0000134210D123689B0765D423681B0700D5C8
:100A1000DAE023685B0700D50BE1636A002B00D0A6
:100A2000A4E10020E8E73821C44DAB680B40E96839
:100A3000102B22D1114222D16368002B33D0A16840
:100A40000029D8D00C202A6982430A432A618022D7
:100A5000520293421AD12A6813432B60FFF7BEFE5D
:100A600080270600BF022B683B42CBD1FFF7B6FEC2
:100A7000801B6428F7D90320BEE7082BDCD12B6844
:100A80009B03BFD56368002BBCD1B4E7A021C9028A
:100A90008B4208D180232968DB020B432B602B6833
:100AA0001A432A60DAE72A68A5490A402A602A68B8
:100AB000A4490A402A60002BD0D1FFF78FFE80277F
:100AC0000600BF022B683B429CD0FFF787FE801BCD
:100AD0006428F7D9CFE73823984DAE681E40EB68FD
:100AE000102E1ED1DB071ED56369002B59D02B6851
:100AF000954A80271340A269FF0013432B6080238F
:100B00002A685B0013432B60FFF768FE06002B6822
:100B10003B4240D06B68E2691B0C1B0413436B60C3
:100B200073E7002EE0D12B685B0503D56369002BCA
:100B300000D160E76B68E2691B0C1B0413436B6018
:100B4000FFF74CFE070080222B68D20013421CD016
:100B5000002E12D12B687C4A1340A26913432B60EC
:100B6000FFF7F2FEAB6879491B051B0F9B005B5832
:100B70001F210B40D840764A1060764B1868FFF76B
:100B8000EDFD002800D140E735E7FFF727FEC01B49
:100B90000228D8D96FE7FFF721FE801B0228B6D9BB
:100BA00069E72B686C4A802713402B60FFF716FE1D
:100BB0000600FF002B683B4200D126E7FFF70EFE40
:100BC000801B0228F6D956E738225C4DAB681340EB
:100BD000182B08D12B6E9B0700D41AE7236A002B31
:100BE00000D016E707E7226A0123002A10D02A6EF8
:100BF000022713432B66FFF7F1FD06002B6E3B42E5
:100C000000D006E7FFF7EAFD801B0228F6D932E79D
:100C10002A6E02279A432A66FFF7E0FD06002B6E34
:100C20003B4200D1F5E6FFF7D9FD801B0228F6D93B
:100C300021E73822414DAB681340202B08D1EB6DE2
:100C40009B0700D4E9E6E368002B00D0E5E6D2E696
:100C500080220021EB6B52050091134208D1EB6B0F
:100C60001343EB63EB6B13400393039B012300934C
:100C700080273A4E7F0033683B421AD0E368002B4E
:100C800027D10121EA6D8A43EA65EA6D03318A437F
:100C9000EA65002B2ED1FFF7A1FD02270600EB6DC0
:100CA0003B422ED0FFF79AFD2D4B801B9842F6D980
:100CB000E1E633683B433360FFF790FD0190336812
:100CC0003B42DBD1FFF78AFD019BC01A0228F6D90F
:100CD000D1E6C02221699202224811421AD1802213
:100CE0002969920201400A432A61012B15D1EA6D5C
:100CF0001343EB65FFF772FD02270600EB6D3B42E5
:100D000014D0009B012B00D087E6EB6B164A1340F2
:100D1000EB6382E62A690240E5E7052BB1D1EA6D73
:100D2000013B1343EB65EA6D0123E1E7FFF756FD55
:100D30000B4B801B9842E1D99DE6C0460010024053
:100D4000FFFFFEFFFFFFFBFFFFC7FFFF742F000841
:100D50001800002008000020FFFEFFFF0070004088
:100D600088130000FFFFFCFFFFFFFFEF3821324D2B
:100D7000AA680A40102A52D0304A022B39D12B6877
:100D8000802713402B60FFF729FD0600BF042B6866
:100D90003B4228D1A26A012A00D12CE6002A09D1BF
:100DA0006B6827491B045B0F9B0026485B588342F6
:100DB00000D820E60121EB6880268B431343EB60CB
:100DC00080232A685B0413432B60FFF707FD0400B0
:100DD000B6042B68334200D023E6FFF7FFFC001B6C
:100DE0000228F6D947E6FFF7F9FC801B0228CED986
:100DF00041E62B688026134001222B60EB68B60485
:100E00009343EB60FFF7EAFC04002B68334200D108
:100E100007E6FFF7E3FC001B0228F6D92BE6012BBF
:100E200000D1E8E50123E8681840A36AC01A431E10
:100E30009841C0B2E0E5C04600100240FFFFFFFE4F
:100E4000342F0008FF23F400F7B504000E0000283B
:100E500001D10120FEBD0127474D2B683B408B424D
:100E600028D32268930739D4D20746D401272B68A8
:100E70003B40B34208D92B68BB432B60FFF7AEFC65
:100E800006002B683B4269D123683C4D5B076CD45C
:100E9000FFF75AFDAB683A491B051B0F9B005B58D7
:100EA0001F210B40D840374A374B10601868FFF7B6
:100EB00055FCCFE72B68BB430B432B60FFF78EFC41
:100EC00001902B683B40B342CBD0FFF787FC019BDE
:100ED000C01A2E4B9842F4D90320BBE72749530789
:100EE00004D5E0238868DB0103438B608B682848C6
:100EF0000340A06803438B60B6E760681F4F042877
:100F00002AD8FFF7DDF81D03212925003B689B0344
:100F10009FD50722BB6893430343BB60FFF75EFC8A
:100F200001903823BA681A406368DB009A429DD06A
:100F3000FFF754FC019BC01A144B9842F1D9CBE740
:100F40003B685B05E5D484E73B689B01E1D480E71F
:100F5000FB6D9B07DDD47CE73B6EFAE7FFF73EFCB9
:100F60000A4B801B98428CD9B6E7AB68094A1340FC
:100F7000E2681343AB608BE70020024000100240A0
:100F8000742F0008180000200800002088130000BB
:100F9000FFF0FFFFFF8FFFFF064B07499B68074AE3
:100FA0005B045B0F9B005B581F2110680B40D8400F
:100FB0007047C04600100240542F0008180000205F
:100FC00010B507240A4B04609A682240F02442605E
:100FD0009A68240122408260E0229B68D20113407B
:100FE0000122C360034B1B6813400B6010BDC04659
:100FF0000010024000200240010002233D310B702E
:10100000036807209A680240062A03D00122186864
:1010100002431A60012300200B707047020030B5B4
:1010200002243C32157803002000012D08D018005E
:101030003D3004701B68596101230370002010705B
:1010400030BD704770470222036810B5196904006B
:1010500011420ED0D96811420BD0053A1A61043200
:1010600002779B699B0700D179E000F0CDFD00235A
:101070002377042223681969114210D0D9681142DC
:101080000DD0093A1A61073222779A69C0239B0072
:1010900020001A4269D000F0B7FD00232377082210
:1010A0002368196911420ED0D96811420BD0113A48
:1010B0001A610D322277DB6920009B075BD000F0BC
:1010C000A3FD00232377102223681969114210D051
:1010D000D96811420DD0213A1A6119322277DA69A2
:1010E000C0239B0020001A424BD000F08DFD00234E
:1010F0002377012223681969114207D0D968114268
:1011000004D0033A20001A6100F053FD80222368C6
:101110001969114208D0D968114205D0023AFF3A44
:1011200020001A6100F0FDF840222368196911427D
:1011300007D0D968114204D0813A20001A61FFF724
:1011400081FF202223681969114207D0D968114212
:1011500004D0413A20001A6100F0E2F810BD00F01E
:101160004FFD2000FFF76DFF81E700F049FD2000F3
:10117000FFF767FF91E700F043FD2000FFF761FFF5
:101180009FE700F03DFD2000FFF75BFFAFE70000A9
:1011900010B5184C0368A0420AD0174A904207D0F5
:1011A000164A904209D1164A1A40CB6813430AE006
:1011B000702293434A681343F5E7124A9042F2D0F3
:1011C000114A9042EFD0802293434A69134303604F
:1011D0008B68C3620B688362A04205D0094B9842BA
:1011E00002D0094B984201D10B690363012343618B
:1011F00010BDC046002C014000040040002000400B
:10120000FFFCFFFF004401400048014070B50400AE
:101210000120002C14D025003D352B78DAB2002BAC
:1012200005D123003C3320001A7001F003F802239B
:101230002B702068211DFFF7ABFF012300202B70CE
:1012400070BD1F2310B5012419408C408A40036AE9
:10125000A3430362036A1A43026210BD10B5046817
:1012600001222000FFF7EDFF0C4B9C4205D00C4BF8
:101270009C4202D00B4B9C4204D18023626C1B0227
:10128000134363640722A3681340062B03D0012392
:10129000226813432360002010BDC046002C01408B
:1012A000004401400048014010B5FFF7D7FF10BDD2
:1012B00010B5046801222000FFF7C3FF0722A368CE
:1012C0001340062B03D00123226813432360002020
:1012D00010BD1F2310B5042419408C408A40036AB6
:1012E000A3430362036A1A43026210BD10B5046887
:1012F00004222000FFF7EDFF8023626C1B021343E2
:1013000007226364A3681340062B03D001232268DD
:1013100013432360002010BD10B5FFF7E7FF10BD99
:101320007047704703680649DA6846300A40DA6059
:101330005A692331FF318A435A6120230370704771
:10134000DFFEFFFF70B5050045352C780300022055
:10135000202C17D10138002914D0002A12D01C00EB
:10136000443426780130012E0CD05A861A8600208B
:101370002122D96298642A7020701A688023D1686B
:101380000B43D36070BDF0B50600463635780300D8
:10139000ECB20220202D1ED1013800291BD0002ADA
:1013A00019D01D0044352F780130012F13D05A87F2
:1013B0001A870020222298645963327028701B68B3
:1013C000DE32D9680A43DA60012259690A435A6158
:1013D000DA681443DC60F0BD010070B546310B786B
:1013E000222B26D1802485680268436B6401A542C4
:1013F00020D10469002C1DD15268D205D20D1A806B
:1014000002334363438F013B9BB24387002B10D1D0
:10141000202403680A4DDA68A243DA60DA682A40B9
:10142000DA605A690335FF35AA435A610C7000F03F
:101430008FFF70BD52685C1C44631A70E2E7C046BF
:10144000FFFEFFFFF8B5036804001A68D968586901
:10145000150708D1202002425DD001425BD0200058
:10146000FFF7BAFFF8BD90260125760028400E4010
:10147000064350D02A4204D0CB0502D5A36C1D43AD
:10148000A564530705D5002803D00223A56C2B4380
:10149000A364930705D5002803D00423A56C2B4330
:1014A000A36408231A4204D0002802D0A06C03438E
:1014B000A364A36C002BD5D020231A4204D0194278
:1014C00002D02000FFF788FF40270822266820006E
:1014D0007569A36C3D4013401D4318D0FFF722FFF0
:1014E00073693B420FD07369206CBB437361002862
:1014F00009D0284B4363FFF7EBF90028B2D0206CEA
:10150000436B9847AEE7200000F02CFFAAE700F0FD
:1015100029FFA564A6E78020024229D0014227D0F6
:10152000220045321278212A9CD18021A068E26AEB
:101530004901884218D12169002915D11188023248
:10154000C905C90D5960E262628E013A92B26286A3
:10155000002A00D086E78021DA688A43DA604022D8
:10156000D9680A43DA607DE7117801325960EAE709
:101570004020024200D175E7014200D172E7DA68EB
:101580008243DA6023002022453320001A7000F0E5
:10159000E4FE67E799150008002310B5406A438709
:1015A000438600F0DFFE10BD010010B544310A781B
:1015B00003000220012A0ED01800242245300270B8
:1015C0001C680C23E2689A43043B1343E360202326
:1015D00003700020087010BD010010B544310A7876
:1015E00003000220012A0ED0180024224530027088
:1015F0001C680C23E2689A43083B1343E3602023F2
:1016000003700020087010BD0300453346301B787E
:10161000007818437047836810B50400002B05D08C
:101620000322010098470023A360E36010BD836894
:1016300010B50400002B02D00322010098472000BF
:1016400010BD4B1E032B02D88800043870470120C0
:101650004042FBE70139435C002B05D0054B0229D2
:1016600005D90120404204E00329FAD8024B490081
:10167000C85A7047EC2E0008E42E000801390329EF
:1016800002D8034B585C704701204042FBE7C0463C
:10169000E02E00080139032902D8034B5856704741
:1016A00001204042FBE7C046DC2E0008F7B50400ED
:1016B0000E00FFF7C6FF0500431C00D1FEE7310016
:1016C0002000FFF7DBFF03000190013300D1FEE7AC
:1016D00031002000FFF7BEFF013000D1FEE73701E7
:1016E0005837E719BB68002B07D0019B2269DB4301
:1016F0001361D36801990B43D360731E5A00A2187B
:1017000090880C2810D8FEF7DBFC44441313130711
:101710000713133E3E3E1F002000E35C29001030FB
:10172000002B02D0FFF7F8FDF7BDFFF7BDFDFBE78B
:101730002000E35C29001030002B02D0FFF7D6FD1B
:10174000F2E7FFF78BFDEFE7200029001030FFF7ED
:10175000AFFD31002000FFF79DFF010006002000D3
:10176000FFF778FF25692B6A1843BB682862002BB6
:10177000DAD031002000FFF781FFC3432B61EB6813
:101780001843E860D0E7200029001030FFF790FDF3
:10179000CAE723691B68DB07C6D420001030FFF7B7
:1017A0002BFCC1E7036E10B50400002B0AD0022207
:1017B000036952421A61D96803320A43DA60103071
:1017C000FFF71AFC20000121FFF770FF2000022123
:1017D000FFF76CFF20000321FFF768FF04212000C2
:1017E000FFF764FF10BD80220369002903D0196848
:1017F0000A431A607047196891431960FAE710B5F7
:1018000001211030FFF70AFC10BD0369186801239D
:101810001840704770B505000C00FFF7F6FF002870
:101820000FD10126E36833420CD0E3682800B343AC
:10183000E360FFF7E4FF02235B422361E3681E439A
:10184000E66070BD2800FFF7DAFFFAE70B0010B57D
:101850000169013B8B62FFF7DDFF10BD0D4A0300FC
:101860000020934214D00C4A0130934210D00B4A0E
:10187000013093420CD00A4A0130934208D0094A01
:101880009B185A4253415842074B1840074BC01807
:101890007047C046002C014000040040002000407A
:1018A0000044014000B8FEBF0500FFFFFFFF00003D
:1018B00070B504000069FFF7D1FF0500200010306B
:1018C00000F028FC0022084BAD00EA50260025005D
:1018D000E260A8355836B54204D0103D2800FFF725
:1018E000A6FEF8E7200070BDA4010020F7B50400B3
:1018F00008000D00FFF7B2FF1F4FB84200D1FEE70E
:101900002369002B00D0FEE721001C4A80000C3127
:10191000815022002C32256126001370203223636F
:101920006363A363E36323646364A364137053700A
:101930000322103663653000E460226500F096FBF8
:1019400023002500A833583501932800FFF763FED4
:10195000019B10359D42F8D1002323606360A36092
:101960006361A3612362636280333000E761A36235
:10197000FFF74CFCF7BDC046FFFF0000A4010020AC
:1019800010B586B004001022002102A801F0B2F9BF
:10199000002302A801A90193FFF712FB206900F0C0
:1019A0006EFC012815D1059CFFF7F6FAC023DB0178
:1019B0009C4206D007D88022064BD2012340934296
:1019C00005D1400003E0E023DB019C42F9D006B0E2
:1019D00010BDFEE7FFEFFFFF70B505000C00012A08
:1019E0000CD0022A18D023005A1E93412969E41A08
:1019F0002800CC62EC61FFF70DFF70BDFFF7C0FF60
:101A00000849FEF767FB60432B69010C99620131BD
:101A1000FEF760FB0400E6E7FFF7B2FF2100FEF7E8
:101A200059FBF1E740420F00044B10B5186800283D
:101A300002D00430FFF707FB10BDC046A401002010
:101A400010B5FFF7F1FF10BD044B10B55868002822
:101A500002D00430FFF7F7FA10BDC046A401002001
:101A6000044B10B59868002802D00430FFF7EBFA59
:101A700010BDC046A4010020044B10B5D868002852
:101A800002D00430FFF7DFFA10BDC046A4010020E9
:101A9000044B10B51869002802D00430FFF7D3FAC0
:101AA00010BDC046A401002010B50C220021040086
:101AB00001F020F900232000E36010BDF8B5050017
:101AC000070004000E005835A83728001035FFF72E
:101AD000EBFFBD42F9D10023310020002361FFF765
:101AE00005FF2000F8BD70B50C220D000021040098
:101AF00001F000F90023E360AB68002B07D002225D
:101B0000290020009847EB68E360AB68A3602000E1
:101B100070BD70B586B06E46040002AD2800FFF7B8
:101B2000E2FF29000822300001F06EF92B002200AC
:101B300003CA03C3230006CE06C3049BA268A360A6
:101B4000059B0492E2682800E3600592FFF76FFDB1
:101B500006B070BD036E70B504000D005830002B48
:101B600002D0FFF7D6FF70BDFFF7D3FFAB68002BA5
:101B7000F9D00222236952421A61D96803320A431A
:101B8000DA60F0E7836810B5002B01D100F0E1FFC7
:101B9000C368984710BD10B5002800D1FEE700F0DB
:101BA00063FA0068036E002B02D05830FFF7EAFF9B
:101BB00010BD10B5FFF7EFFF10BD030010B50028F2
:101BC00000D1FEE7007F0138072812D8FEF778FA27
:101BD00004161112111111140124180000F044FA16
:101BE00024010068583400198368002B01D0FFF7E6
:101BF000C9FF10BD0324F0E70424EEE70224ECE75C
:101C000010B5FFF7DAFF10BD10B5FFF7D6FF10BD16
:101C1000030084B0012811D002281AD0002083428A
:101C20000AD10121A020104BC0055A6B0A435A6308
:101C30005B6B0B400193019B04B0704702210A4B80
:101C40000A485A6B0A435A635B6B0B400293029B30
:101C5000F2E72021044B06485A6B0A435A635B6B38
:101C60000B400393039BE7E7001002400004005081
:101C700000140050F7B5134B06001900019300F053
:101C8000AEF9FFF7EBFD104F8400E359002B0DD1A7
:101C9000A82000F0C1FB01990500300000F09FF979
:101CA00001002800FFF70AFFE3591D603B591C683B
:101CB000002C06D02000FFF7FBFDA821200000F03B
:101CC000AFFBF7BDAC310008A401002010B5FEF752
:101CD00085FD10BD704710B5FEF774FDFEF7F3FDEE
:101CE000FFF7F8FF10BD704780210A4B4905DA6BFA
:101CF00082B00A43DA63DA6B0A4001210092009A4B
:101D00001A6C0A431A641B6C0B400193019B02B0CE
:101D10007047C0460010024010B5FFF7E5FFFEF720
:101D200045FDFFF7E0FF00F0A9FB10BD10B50C2248
:101D30000021040000F0DEFF0023E36010BD00007E
:101D4000002310B501280BD114225A43064B101D55
:101D5000C0188168002902D09B181B69984710BDE4
:101D600001334008DBB2EDE7B801002010B50120D7
:101D7000FEF7DEFD0220FEF7DBFD10BD10B50420EE
:101D8000FEF7D6FD0820FEF7D3FD10BD70B50C247C
:101D90001025A8B2013CFEF7CBFD6D00002CF8D158
:101DA00070BD0000F8B505252E4F2F4C380025706A
:101DB000FFF7BCFF2D4E25753000FFF7B7FF23005E
:101DC000013528332A481D70FFF7B0FF230029484A
:101DD0003C331D70FFF7AAFF23000135503326481E
:101DE0001D706037FFF7A2FF24483D706036FFF793
:101DF0009DFF23483570FFF799FF230021488C335E
:101E00001D70FFF793FF23001F48A0331D70FFF7DD
:101E10008DFF23001D48B4331D70FFF787FF23009B
:101E20001B48C8331D70FFF781FF23001948DC33BE
:101E30001D70FFF77BFF23002600F03316481D704E
:101E4000FF36FFF773FF15487571FFF76FFF1448F2
:101E50007576FFF76BFF962312485B00E554FFF79A
:101E600065FFF8BDBC010020B8010020D0010020B2
:101E7000E4010020F80100200C02002020020020D4
:101E800034020020480200205C0200207002002082
:101E90008402002098020020AC020020C002002032
:101EA000D4020020E802002010B5044C143C201D90
:101EB000FFF7BDFB024B9C42F8D110BDF802002099
:101EC000B8010020431C04D100207047834204D095
:101ED0000C310B685A1CF9D1F6E70120F5E7000038
:101EE000F7B506000C00431C00D1FEE707250200F1
:101EF0000D400F21334B0A40000992000840D7588B
:101F00000195FFF785FE8268030094463A0003209E
:101F100065467A435043C14328439860019803289B
:101F20003FD8FEF7CDF83F411A02032050431E6808
:101F3000019D0E403043013D1860012D04D820075B
:101F400034D5586838435860A406A40F012C30D00B
:101F5000022C33D0DA680A402EE06004400E84463A
:101F60007F2801D10220E1E736070DD50F26586AF8
:101F70000500380A404340434643B5432E006546BA
:101F8000684306435E62EDE7186A0F2605001000FD
:101F900050434643B5432E006546684306431E62E0
:101FA000E0E7FEE70020C1E70120BFE75868B8433B
:101FB000C9E7D86801400A43DA60F7BDD868520023
:101FC0000140F8E7F42E00080B685A1C01D10020EC
:101FD00002E0834201D1486870470C31F4E70023E6
:101FE00010B5421C02D0FFF7EFFF0300180010BD30
:101FF000002330B50C68651C01D1002004E0844248
:1020000004D1934201DB486830BD01330C31F1E764
:102010004B68002B02D10120404202E0834201D1F3
:10202000086870470C31F3E710B5002802D0FFF7BD
:10203000EFFF10BD01204042FBE700000749084ABE
:102040004B6812681B0C1B0413438022920113433C
:1020500080224B60034B12059A60704700100240CB
:10206000040FFF1F00ED00E0043870470368234AA7
:1020700086B093420BD18021214B09011A6C0A438F
:102080001A641B6C0B400193019B06B070471D4AFC
:10209000934209D102211A4BDA6B0A43DA63DB6BF4
:1020A0000B400293029BF0E7174A93420AD180212A
:1020B000134B09021A6C0A431A641B6C0B400393FE
:1020C000039BE2E7114A93420AD180210C4B89021B
:1020D0001A6C0A431A641B6C0B400493049BD4E7EC
:1020E0000B4A9342D1D18021054BC9021A6C0A4395
:1020F0001A641B6C0B400593059BC6E7002C01403E
:102100000010024000040040002000400044014054
:10211000004801400368134A934205D1124A13490B
:10212000136C0B40136407E0114A934205D102215E
:102130000D4AD36B8B43D36370470E4A934203D14E
:10214000094A0D49136CECE70C4A934203D1064A45
:102150000B49136CE5E70B4A9342EDD1024A0A4959
:10216000136CDEE7002C014000100240FFF7FFFF78
:102170000004004000200040FF7FFFFF00440140BA
:10218000FFFFFDFF00480140FFFFFBFF0300421C73
:1021900013D00E4A904213D007D80D4A904211D066
:1021A0000C4A1320934207D0FEE70B4A90420BD013
:1021B0000A4A16209342F7D170470E204042FBE7AF
:1021C0000D20F9E71020F7E71520F5E7002C014076
:1021D000000400400020004000440140004801404D
:1021E0000300421C13D00E4A904213D007D80D4A68
:1021F000904211D00C4A1320934207D0FEE70B4ABD
:1022000090420BD00A4A16209342F7D170470E2015
:102210004042FBE70E20F9E71020F7E71520F5E72D
:10222000002C014000040040002000400044014018
:1022300000480140F8B50400FFF718FF2068FFF7D9
:10224000A5FF626C216CFEF7CFFA2068FFF79EFFB6
:10225000FEF7F4FA27683800FFF7C2FF05003800E0
:10226000FFF794FF854209D02800626C216CFEF7CD
:10227000BBFA2068FFF7B4FFFEF7E0FAF8BD0130C3
:10228000431E9841C0B2704710B569300278064BC2
:102290009200D058FFF7B8F9222318402238434261
:1022A0005841C0B210BDC046F802002010B56930D8
:1022B0000278064B9200D058FFF7A6F92123184068
:1022C000213843425841C0B210BDC046F802002038
:1022D00070B504001500002817D0060041650020E5
:1022E00068363056FEF7B6FA23007A331B88216F22
:1022F00069342078C918054B8000C058AAB2FFF78E
:1023000021F800203056FEF799FA70BDF80200203F
:1023100010B5002809D0C36D013306D169300278A9
:10232000024B9200D058FFF73FF910BDF802002091
:1023300010B5002809D0C36D013306D16930027889
:10234000024B9200D058FFF747F910BDF802002069
:1023500010B50438036D984710BD10B50438436DAF
:10236000984710BD7FB503680122196804000D006D
:1023700004381540114211D0002200921A680092D0
:102380005B680093009BFFF77FFF002805D12100C9
:10239000012220006631FEF7F6FF7FBD1968022298
:1023A0000E001640114206D001951A6801925B6832
:1023B0000193019BE7E7196804220D0015401142C3
:1023C00006D002961A6802925B680293029BDAE7D3
:1023D0001A681207D7D503951A6803925B680393AE
:1023E000039BD0E710B51B20FEF75EFA024B18687E
:1023F000FFF728F810BDC046F80200201C2010B5D9
:10240000FEF752FA034B5868002801D0FFF71AF87C
:1024100010BDC046F802002010B500F0A5FB10BDAD
:1024200010B500F0ABFB10BD03000A4910B50868F9
:10243000C318EFF30882934205D90C220120064B02
:1024400040421A6010BD054A054C121B9342F4D25B
:102450000B60F7E71C0000206C0500200010002036
:1024600000040000FEE7000016220120014B40425C
:102470001A6070476C0500200120704700B591B0CC
:102480002822002106A800F035FC0021102201A816
:1024900000F030FC02230593FE330A930C4B05A891
:1024A0001B68DB04DB0C0C9301230E93FEF79EFAF2
:1024B000011E00D0FEE7072302900390049001A8BC
:1024C0000193FEF7C1FC002800D0FEE711B000BD6B
:1024D000000FFF1F10B51C00431A0298511A001B71
:1024E0005843FDF781FE001910BD00000D488546D8
:1024F0000D480E490E4A002302E0D458C45004335C
:10250000C4188C42F9D30B4A0B4C002301E0136032
:102510000432A242FBD3FFF791FD00F04FFC00F024
:1025200012F8FEE7001000200000002070000020DC
:10253000843400087000002074050020FEE710B508
:1025400000F0C6F810BD10B500E000BFFDF75CFF5D
:10255000FDF76EFF00F0ACF8FAE70000F7B5C3B284
:1025600004000191262B29D8E02226499B005C58C3
:10257000D20002401443631C37D00F262509354092
:10258000214FAD00EB592640F340DB070DD520006D
:102590001E49FFF797FC002802D02000FFF76AFBD6
:1025A0000122B2407B5993437B51019B052B27D8D5
:1025B0001800FDF785FD16211B1D1F23C0220240B8
:1025C000C02A12D1C92B10D83F23114903409B00C8
:1025D0005B58E0210B4A9B009B58C9000C401C43F0
:1025E000C9E700212000FFF77BFCF7BD1021F9E7C8
:1025F0002021F7E70321F5E70121F3E70921F1E7BE
:10260000FEE7C0469C33000800030020AC31000800
:1026100074330008C3B210B5262B17D8E022174C2C
:102620009B00D200024018591043030600221B0FE2
:10263000022B02D8124A9B009A580F24114B2040BB
:102640008000C358002917D0936110BDC0220240FA
:10265000C02A0ED1C92B0CD83F230B4C03409B0042
:102660001B59E024054A9B009B58E4002040184376
:10267000DBE701204042D8E79362E6E79C3300089D
:102680000C000020F42E00087433000810B5FFF78A
:102690001DFB10BD70B5041E09D0FFF717FB050028
:1026A00000F01AF8FFF712FB401BA042F8D370BDF0
:1026B000054B10B5002B06D0044800F00EF800289A
:1026C00001D000E000BF10BD000000000C0300209E
:1026D00010B5FFF721FB10BD70470200FE32D38911
:1026E00050894033181A3F23184070470300FE33C7
:1026F000DA895B899A4203D0FC304268D05C70472B
:1027000001204042FBE7FE30037B008AC0B28342D7
:1027100002D3C01A3F307047C01A0138FBE713B527
:102720006B460268D9710733546819000122A0472B
:1027300016BD0000030010B57A331A88C16F521815
:102740003F210A401A800200763212881C8800213C
:10275000A24217D01C88403219880B4B121B89B239
:102760001A4004D54023013A5B421A430132402308
:102770005B1A9A4200D91A000449C267FFF7A8FD04
:1027800001214942080010BD3F00008035270008A4
:10279000F0B50400036885B09B68019103929847E7
:1027A00023004025FE339B890700ED1A0123237483
:1027B0002300F0331B6801330AD12300FF335A7D15
:1027C000002A05D0002220005A759430FFF7A0FDA2
:1027D000236820009B6898470028F9D0039EB542E3
:1027E00029D3BE4227D823002700FE3302939B89BA
:1027F000FC37B8689A19C018402A34D832000199B9
:1028000000F002FB3500029B3F229B899B192600AA
:102810001340029A943630009381FFF747FD002859
:1028200006D1FC342A00300015496561FFF750FDE0
:10283000039805B0F0BDBD4200D93D0023682A00D1
:102840005B68019920009847019B20005B19019368
:102850002368761B9B6898472300FE339D8940239D
:1028600007005D1BBBE74025ED1A2A00019900F027
:10287000CBFA019BB868721B591900F0C5FAC2E780
:1028800035270008037C002B04D0FE308289038AA0
:102890009A42FCD170470000F7B50193022315005E
:1028A00004000E000022012700931B492800FFF7B7
:1028B0009FFB1A490B689C46194BC3185A1E93413B
:1028C0003A005B009A401300624613421ED11A433D
:1028D000230094330A601860B54201D10126764284
:1028E0002300F033019A1E605A60089A043BDA60B4
:1028F00022001D60FC322100DB3B53600023FE31CF
:102900005134CB819460D3600B82F7BD009B3A00B9
:10291000012BE1D00097C8E7B03000082804002060
:1029200000C8FEBFCBB210B5262B09D8E0220F4C51
:102930009B00D2000A4019591143F030016010BDCC
:10294000C0220A40C02A0ED1C92B0CD83F23084C04
:102950000B409B001B59E024044A9B009B58E40059
:1029600021401943E9E701214942E6E79C33000889
:1029700074330008CBB210B5262B09D8E0220F4CD7
:102980009B00D2000A4019591143EC30016010BD80
:10299000C0220A40C02A0ED1C92B0CD83F23084CB4
:1029A0000B409B001B59E024044A9B009B58E40009
:1029B00021401943E9E701214942E6E79C33000839
:1029C000743300080023F0B54360FA239B00836052
:1029D000204B060003600123F0365B4233601E4B40
:1029E00085B004000D00039298421AD1C321200043
:1029F000FFF798FFC2212000FFF7BCFF0123039AD5
:102A00005B42012A00D13360220000930123EC32A3
:102A10002000126831685B42FFF73EFF200005B0DE
:102A2000F0BD0E4A0E4F92680E4B92003900D058FE
:102A3000FFF7D5FA8542D9D00B492800FFF7F4FA01
:102A4000390030602800FFF7EFFA2300EC331860FC
:102A5000D4E7C0463C3400080C030020743300085F
:102A6000B03000089C330008B42F00080300F03396
:102A70001B6810B5040001330DD10368DB6898476B
:102A80002300FF335A7D002A05D1200001325A75F8
:102A90009430FFF74DFC10BD10B50400FFF7E6FFC2
:102AA0002200FE32D1895389994207D0FC346168F3
:102AB000C85C3F2101330B40538110BD01204042CF
:102AC000FBE7000010B5002202480349FFF77AFF38
:102AD00010BDC0460C0300200038014010B50400B2
:102AE000FFF7D4FDE060236820005B699847002869
:102AF00008DAFFF7CBFDE368C01AA3689842F2D367
:102B00000120404210BDF8B506000F00150000245A
:102B1000AC4201D12000F8BD3000FFF7DFFF0028F4
:102B2000F8DB38550134F3E7F7B50F0016001D0048
:102B30001C1E01900BD000240198FFF7CFFF002846
:102B400005DBB84203D030550134A542F4D1200052
:102B5000FEBD10B500F000F8062010B500F0FCF83E
:102B60000120FFF77FFC000010B5034B010018683F
:102B700000F030F810BDC0462000002010B5034B17
:102B80000100186800F04AF910BDC046200000207E
:102B900070B50F4E0D0031680400002902D100F01D
:102BA000FBF830602900200000F0F6F8431C03D148
:102BB00001256D42280070BD0323C51C9D43A8421A
:102BC000F8D0291A200000F0E7F80130F2D1EFE741
:102BD0002C040020F7B50322CB1C934308330500D7
:102BE0001F000C2B34D20C27B94233D8280000F038
:102BF00071F8374E33681C00002C2FD139002800A3
:102C0000FFF7C6FF0400431C5FD134680094009BAB
:102C1000002B4AD1002C52D023682800E3180099D9
:102C2000019300F0B9F8019B834248D12368280042
:102C3000FF1A3900FFF7ACFF013040D02368DB19E1
:102C4000236033685A68002A33D1009B336019E04F
:102C5000002BC9DA0C232B600020FEBD2168C91BA4
:102C600020D40B290AD9E2192760A34204D132608B
:102C700063681160536005E05A60F9E76268A34237
:102C80000ED13260280000F02DF8200007220B3012
:102C9000231D9043C21A9842DFD01B1AA350DCE7D1
:102CA0005A60EFE723006468A6E7009C636800931E
:102CB000ADE71A005B68A342FBD10023DAE70C23DF
:102CC00028002B6000F00EF8C6E70760DAE7C04680
:102CD0003004002010B5024800F094F810BDC04642
:102CE0007005002010B5024800F08DF810BDC046F8
:102CF0007005002003008218934200D170471970BC
:102D00000133F9E770B504000D001F2904D916231B
:102D100003600120404270BDC36B002B04D08A00C9
:102D20009B181A68002A08D1200000F031F82A0008
:102D30000100200000F01AF8EDE7012A09D0511C2B
:102D400003D1162303600120E5E700212800196064
:102D500090470020DFE7000010B5034B0100186822
:102D6000FFF7D0FF10BDC04620000020002370B543
:102D7000064D0400080011002B60FFF775FB431C93
:102D800003D12B68002B00D0236070BD6C050020A0
:102D900010B5FFF771FB10BD002370B5064D0400A0
:102DA00008002B60FFF740FB431C03D12B68002B6E
:102DB00000D0236070BDC0466C05002070B50026B1
:102DC0000C4C0D4D641BA410A64209D1002600F046
:102DD0006FF80A4C0A4D641BA410A64205D170BDC1
:102DE000B300EB5898470136EEE7B300EB5898472D
:102DF0000136F2E7603400086034000878340008D7
:102E00006034000870477047002310B59A4200D123
:102E100010BDCC5CC4540133F8E7000070B5050068
:102E20000C1E10D0043C2368002B00DAE4182800A4
:102E3000FFF750FF1D4A1368002B05D16360146033
:102E40002800FFF74FFF70BDA34208D92068211862
:102E50008B42F3D119685B6809182160EEE71A000C
:102E60005B68002B01D0A342F9D911685018A04229
:102E70000BD120680918501811608342E0D11868FE
:102E80005B68411811605360DAE7A04202D90C2355
:102E90002B60D5E7206821188B4203D119685B6845
:102EA0000918216063605460CAE7C04630040020FE
:102EB000F8B5C046F8BC08BC9E467047F8B5C04699
:082EC000F8BC08BC9E467047F7
:102EC80000093D0000127A000024F40040865101F8
:102ED80000366E010201040302040810010010000C
:102EE8000001001004004000000400000100000080
:102EF80002000000040000000800000010000000AC
:102F080020000000400000008000000000010000D8
:102F1800000200000004000000080000001000008B
:102F280000200000004000000080000000093D0073
:102F380000127A000024F4004086510100366E0128
:102F480000093D0000093D0000093D0000000000A7
:102F58000000000000000000000000000100000068
:102F68000200000003000000040000000000000050
:102F78000000000000000000000000000000000049
:102F88000000000000000000000000000100000038
:102F9800020000000300000004000000060000001A
:102FA80007000000080000000900000003000000FE
:102FB80000380140120100000800000000380140FC
:102FC8001208000009000000003801401208000043
:102FD8000A00000000380140120100000D00000046
:102FE80000380140120800000F00000000380140BE
:102FF8001201000012000000003801401200000019
:1030080017000000003801401200000020000000F6
:103018000038014012080000010000000044004090
:1030280012090000030000000044004012040000E0
:1030380005000000004400401209000008000000DC
:1030480000440040120900000A000000004400404B
:10305800120400000F0000000044004012040000A9
:103068001200000000440040120300001700000096
:10307800004400401204000020000000004400400A
:103088001204000021000000004400401209000062
:10309800220000000044004012040000FFFFFFFF70
:1030A800000000000000000002000000003801409D
:1030B800120100000700000000380140120800005B
:1030C8000900000000380140120100000A00000059
:1030D80000380140120800000E00000000380140CE
:1030E8001201000016000000003801401200000024
:1030F80018000000003801401208000021000000FC
:103108000038014012080000230000000038014088
:1031180012000000000000000044004012090000F6
:1031280002000000004400401204000004000000F7
:10313800004400401209000007000000004400405D
:1031480012090000090000000044004012040000B9
:103158000E000000004400401204000016000000A9
:103168000044004012040000180000000044004021
:103178001204000020000000004400401209000072
:103188002100000000440040120400002300000059
:103198000044004012040000FFFFFFFF0000000091
:1031A8000000000000000000002C0140128D01000A
:1031B80000000000002C0140128E100001000000E9
:1031C800002C0140120D020001000000002C0140FB
:1031D800120E11000200000000040040128D0000D1
:1031E80003000000002C0140128D000004000000C4
:1031F8000020004012840000050000000004004088
:10320800120D0100060000000004004012810000B9
:10321800060000000044014012850000070000007D
:1032280000040040120101000700000000480140AE
:103238001285000007000000002C014012821000D7
:103248000700000000200040128400000800000071
:10325800002C01401282000009000000002C0140EF
:10326800120201000A000000002C01401282010035
:103278000B000000002C0140120202000D000000AB
:10328800002C0140120D0100100000000004004055
:103298001281010010000000002C014012021100F0
:1032A800110000000004004012010200110000009B
:1032B800002C014012821100110000000020004083
:1032C8001280000013000000002C014012010100D0
:1032D80014000000000400401281000015000000E6
:1032E80000040040120101001600000000440140E3
:1032F8001282100015000000002C0140120101008C
:1033080016000000002C0140128101001600000088
:1033180000440140128210001700000000480140DC
:1033280012821000180000000044014012820000C0
:103338001800000000480140128D00002000000025
:103348000020004012820000210000000020004000
:10335800128D00002300000000040040128D0100BF
:10336800FFFFFFFF00000000000000000000000059
:10337800010000000200000003000000040000003B
:103388000500000006000000070000001000000013
:103398001100000000000000010000000200000011
:1033A8000300000004000000050000000600000003
:1033B8000700000008000000090000000A000000E3
:1033C8000B0000000C0000000D0000000E000000C3
:1033D8000F000000100000001100000012000000A3
:1033E8001300000014000000150000001600000083
:1033F8001700000018000000190000001A00000063
:103408001B0000001C0000001D0000001E00000042
:103418001F00000020000000210000002200000022
:103428002400000026000000270000000000000023
:10343800000000001F270008912700080727000840
:1034480085280008DB260008992A0008ED260008D0
:08345800072B0008292B0008D6
:103460003F250008E9030008850400083507000827
:08347000A51D0008C52A000893
:0C347800C103000849070008A91E000855
:10348400FF000000010000000400000000000050E4
:10349400000400500014005000093D00780500208D
:1034A4002400002000000000340400209C040020BC
:1034B40004050020000000000000000000000000DF
:1034C40000000000000000000000000000000000F8
:1034D40000000000000000000000000000000000E8
:1034E40000000000000000000000000000000000D8
:04000005080024EDDE
:00000001FF
